CLDU00000001111003PEREZ JUAN                    20001025F
ALPA00000120011103ANTON GIAN                    20001023M
ALPE00001200011104ANTON NICO                    20140311M
CNDU00000111222100PEREZ JUAN13                  19690620M
